:1000000007C1000033C1000031C100002FC1000052
:100010002DC100002BC1000029C1000027C1000034
:1000200025C1000023C1000021C100001FC1000044
:100030001DC100001BC1000019C1000017C1000054
:1000400015C1000013C1000011C100000FC1000064
:100050000DC100000BC1000009C100006BC300000E
:1000600005C10000DAC30000AFC30000FFC00000FC
:10007000FDC00000FBC00000F9C00000F7C0000098
:10008000F5C00000F3C00000F1C00000EFC00000A8
:10009000EDC00000EBC00000E9C00000E7C00000B8
:1000A000E5C00000E3C00000E1C00000DFC00000C8
:1000B000DDC00000DBC00000D9C00000D7C00000D8
:1000C000D5C00000D3C00000D1C00000CFC00000E8
:1000D000CDC00000CBC00000C9C00000C7C00000F8
:1000E000C5C000006501680157015B015F019F0108
:1000F0006C01700176017A017E01840188018C0116
:100100009F01920196019A0100002100240027001E
:100110002A002D0030003300010100000401070116
:100120000A0100002200250028002B002E003100CB
:10013000340002010000050108010B010505050559
:10014000070508080808020202020A0A080804044F
:10015000040401010101010101010303030303037D
:100160000303040707070C0C0C0C0C0C0C0C02020C
:10017000020206060606060606060B0B0B0B0B0B09
:100180000B0B010210202008081020401020408096
:10019000020102010804020101020408102040804B
:1001A00080402010080402018004020180402010D9
:1001B0000804020108040201010204081020408022
:1001C000010204081020408000000A0B02090C0DF7
:1001D0000E080703040100000000000000000000FA
:1001E000000000000000000000000000000000000F
:1001F00000000000121110000000000000000000CC
:1002000000000000000000000000000000005B058E
:1002100011241FBECFEFD1E2DEBFCDBF00E00CBF87
:1002200012E0A0E0B2E0ECE2FBE000E00BBF02C0B5
:1002300007900D92AA32B107D9F724E0AAE2B2E002
:1002400001C01D92A23BB207E1F711E0C8E0D1E086
:1002500000E005C021970109802FFE0159D4C73065
:10026000D10780E00807B1F70ED35EC4C9CE362FA0
:1002700090E0FC01E853FE4F4491FC01EE57FE4F25
:100280002491FC01E45CFE4F9491992309F46BC026
:10029000442309F454C050E0FA013197E231F105EA
:1002A00008F04DC08827EE58FF4F8F4F31C4809122
:1002B00080008F7707C0809180008F7D03C0809180
:1002C0008000877F809380003AC084B58F7702C01A
:1002D00084B58F7D84BD33C08091B0008F7703C01B
:1002E0008091B0008F7D8093B00029C080919000F4
:1002F0008F7707C0809190008F7D03C08091900020
:10030000877F809390001BC08091A0008F7707C0EB
:100310008091A0008F7D03C08091A000877F809393
:10032000A0000DC0809120018F7707C0809120012F
:100330008F7D03C080912001877F80932001E92F6A
:10034000F0E0EE0FFF1FEE5DFE4FA591B4919FB759
:10035000F894311104C08C912095282302C0EC91AF
:100360002E2B2C939FBF08953FB7F8948091AE0435
:100370009091AF04A091B004B091B10426B5A89BB0
:1003800005C02F3F19F00196A11DB11D3FBFBA2F27
:10039000A92F982F8827820F911DA11DB11DBC0187
:1003A000CD0142E0660F771F881F991F4A95D1F74C
:1003B00008958F929F92AF92BF92CF92DF92EF9269
:1003C000FF926B017C01D0DF4B015C01C114D104B1
:1003D000E104F104E9F0C8DFDC01CB0188199909D7
:1003E000AA09BB09883E9340A105B10578F321E035
:1003F000C21AD108E108F10888EE880E83E0981E41
:10040000A11CB11CC114D104E104F10421F7DECF19
:10041000FF90EF90DF90CF90BF90AF909F908F9024
:100420000895CF92DF92EF92FF920F931F93CF9395
:10043000DF936C017A018B01C0E0D0E0CE15DF05BF
:1004400081F0D8016D918D01D601ED91FC91019063
:10045000F081E02DC6011995892B11F02196EECF80
:100460007E01C701DF91CF911F910F91FF90EF9017
:10047000DF90CF900895089580E090E00895FC010A
:10048000538D448D252F30E0842F90E0821B930BF9
:10049000541710F0CF96089501970895FC01918D9F
:1004A000828D981761F0828DDF01A80FB11D5D96D6
:1004B0008C91928D9F5F9F73928F90E008958FEF44
:1004C0009FEF0895FC01918D828D981731F0828DF8
:1004D000E80FF11D858D90E008958FEF9FEF08954F
:1004E000FC01918D228D892F90E0805C9F4F821BB3
:1004F00091098F73992708958CE094E0F1DF21E052
:10050000892B09F420E0822F0895FC01848DDF01FE
:10051000A80FB11DA35ABF4F2C91848D90E0019676
:100520008F739927848FA689B7892C93A089B18965
:100530008C91837080648C93938D848D981306C006
:100540000288F389E02D80818F7D80830895EF926A
:10055000FF920F931F93CF93DF93EC0181E0888F7D
:100560009B8D8C8D981305C0E889F989808185FD64
:1005700025C0F62E0B8D10E00F5F1F4F0F73112754
:10058000E02E8C8DE8120BC00FB607FCFACFE8897D
:10059000F989808185FFF5CFCE01B7DFF2CF8B8D52
:1005A000FE01E80FF11DE35AFF4FF0829FB7F89468
:1005B0000B8FEA89FB89808180620AC09FB7F8941B
:1005C000EE89FF896083E889F9898081837080647E
:1005D00080839FBF81E090E0DF91CF911F910F91C9
:1005E000FF90EF900895CF93DF93EC01888D8823DF
:1005F000C1F0EA89FB89808185FD05C0A889B98998
:100600008C9186FD0EC00FB607FCF5CF808185FF6B
:10061000F2CFA889B9898C9185FFEDCFCE0175DF26
:10062000E8CFDF91CF91089580E090E0892B19F019
:1006300063DF811125C080E090E0892B41F080E0EC
:1006400090E0892B21F00E94000081111CC080E005
:1006500090E0892B41F080E090E0892B21F00E940E
:100660000000811113C080E090E0892BA1F080E0B0
:1006700090E0892B81F00E94000081110AC008954A
:100680000E940000D8CF0E940000E1CF0E9400002D
:10069000EACF0C9400000895682F8CE094E057CFC7
:1006A000CF92DF92EF92FF920F931F93CF93DF933E
:1006B00083E5F2DF0AE212E082E1E82E82E0F82E22
:1006C000E7016801F6018081882311F061E001C033
:1006D00060E08881CCDDF8E2CF0ED11C229682E06A
:1006E000CA32D80779F760E58CE094E030DF64EF38
:1006F00071E080E090E05DDE0F5F1F4F92E0023519
:100700001907D1F686E4C8DFF7018081F2E0EF0E29
:10071000F11C60E0ACDD8AE2E81682E0F806A1F7A1
:10072000DF91CF911F910F91FF90EF90DF90CF90CD
:100730000895F6D11F920F920FB60F9211242F93A6
:100740003F938F939F93AF93BF938091AA0490910F
:10075000AB04A091AC04B091AD043091A90423E0A6
:10076000230F2D3720F40196A11DB11D05C026E8E9
:10077000230F0296A11DB11D2093A9048093AA0402
:100780009093AB04A093AC04B093AD048091AE04FD
:100790009091AF04A091B004B091B1040196A11D55
:1007A000B11D8093AE049093AF04A093B004B093B6
:1007B000B104BF91AF919F918F913F912F910F9075
:1007C0000FBE0F901F9018951F920F920FB60F92A9
:1007D00011240BB60F922F933F934F935F936F9318
:1007E0007F938F939F93AF93BF93EF93FF938CE08F
:1007F00094E08BDEFF91EF91BF91AF919F918F912C
:100800007F916F915F914F913F912F910F900BBE10
:100810000F900FBE0F901F9018951F920F920FB65A
:100820000F9211240BB60F922F938F939F93EF93F8
:10083000FF93E0911C04F0911D048081E09122045B
:10084000F091230482FD12C09081809125048F5F76
:100850008F7320912604821751F0E0912504F0E077
:10086000E45FFB4F958F8093250401C08081FF9149
:10087000EF919F918F912F910F900BBE0F900FBE14
:100880000F901F901895789484B5826084BD84B5CC
:10089000816084BD85B5826085BD85B5816085BD7B
:1008A00080916E00816080936E0010928100809133
:1008B00081008260809381008091810081608093BB
:1008C0008100809180008160809380008091B100E0
:1008D00084608093B1008091B00081608093B0000B
:1008E000809191008260809391008091910081605D
:1008F000809391008091900081608093900080911E
:10090000A10082608093A1008091A100816080930A
:10091000A1008091A00081608093A00080912101BE
:100920008260809321018091210181608093210167
:100930008091200181608093200180917A00846001
:1009400080937A0080917A00826080937A0080910F
:100950007A00816080937A0080917A008068809329
:100960007A001092C100A4E1B2E08D919D91992787
:10097000FC01EE57FE4F2491FC01E45CFE4F849194
:10098000882399F090E0880F991FFC01E85FFE4FE3
:10099000C591D491FC01EE5DFE4F859194918FB786
:1009A000F894E881E22BE8838FBF82E0AA32B8078F
:1009B000E1F6E0911C04F0911D0482E08083E09157
:1009C0001804F09119041082E0911A04F0911B04AC
:1009D0008FEC808310922404E0912004F091210494
:1009E00086E08083E0911E04F0911F048081806185
:1009F0008083E0911E04F0911F04808188608083D1
:100A0000E0911E04F0911F04808180688083E09152
:100A10001E04F0911F0480818F7D8083CAE0D0E0A6
:100A200061E08DE024DC61E070E080E090E0C1DC1A
:100A300060E08DE01CDC219799F711E08CE094E0F8
:100A40004FDD892BB1F18CE094E028DD80339105F6
:100A500019F0C197D9F02DC0C0910A04D0910B04B0
:100A6000C03E81E0D80764F482E516DECE0101962F
:100A700090930B0480930A04C65DDD4F188219C061
:100A800010920B0410920A040BDE13C0C0910A04EA
:100A9000D0910B04C03E81E0D80794F782E5FCDDDD
:100AA000CE01019690930B0480930A04C65DDD4F3E
:100AB0001883BADDC3CFECE0F4E01382128288EE33
:100AC00093E0A0E0B0E084839583A683B78384E0BD
:100AD00092E09183808385EC90E09587848784EC15
:100AE00090E09787868780EC90E0918B808B81ECFB
:100AF00090E0938B828B82EC90E0958B848B86ECDC
:100B000090E0978B868B118E128E138E148E089523
:100B1000EE0FFF1F881F8BBF0790F691E02D1994F1
:0C0B200081E090E0F89400C0F894FFCF52
:100B2C0000000000A70211023F02F30270024E0205
:100B3C006202020003000400050006000700080022
:0A0B4C0009000A000B000C000D0068
:00000001FF
